S01500006E696E6F732073616B7572736F2E73726563C0
S11300000C9434000C9451000C9451000C94510045
S11300100C9451000C9451000C9451000C94510018
S11300200C9451000C9451000C9451000C94510008
S11300300C9451000C9451000C9451000C945100F8
S11300400C9451000C9451000C9451000C945100E8
S11300500C9451000C948D000C9451000C9451009C
S11300600C9451000C94510011241FBECFEFD8E022
S1130070DEBFCDBF11E0A0E0B1E0E2EDFAE002C0E6
S113008005900D92A831B107D9F721E0A8E1B1E0BC
S113009001C01D92A132B207E1F70E9474010C94D1
S11300A067050C940000ECE7F0E0808180668083B3
S11300B0EAE7F0E080818D6A8083EBE7F0E08081FD
S11300C0836080830895ECE7F0E09081907F8F70E7
S11300D0892B80830895EAE7F0E08081806480833F
S11300E008958AB18C6F8AB9089516BC83E687BDDA
S11300F084B5826484BD089585B5826085BD089504
S11301008093B400E0EBF0E0808183628083E1EBD4
S1130110F0E080818260808308951F920F920FB671
S11301200F9211248F9382E085BB84E089B980917A
S11301307900809320018F910F900FBE0F901F9034
S113014018954F925F926F927F928F929F92AF9287
S1130150BF92CF92DF92EF92FF92CF93DF93CDB70E
S1130160DEB728970FB6F894DEBF0FBECDBFFC01F3
S113017080809180A280B38084819581A681B7819B
S113018089839A83AB83BC8340845184628473845F
S1130190809120016FE770E0681B7109072E000C45
S11301A0880B990B0E9445046B017C019B01AC01F7
S11301B0C501B4010E94FA046D837E838F839887FE
S11301C0209118013091190140911A0150911B019D
S11301D0C701B6010E949C034B015C0160931801A6
S11301E07093190180931A0190931B0120E030E071
S11301F048EC52E40E94F50418166CF480E090E098
S1130200A8ECB2E48093180190931901A0931A0109
S1130210B0931B0116C020E030E048EC52ECC5015D
S1130220B4010E940804882364F480E090E0A8EC00
S1130230B2EC8093180190931901A0931A01B09322
S11302401B01209118013091190140911A0150911C
S11302501B0169817A818B819C810E94FA046983E4
S11302607A838B839C83A701960160911C01709112
S11302701D0180911E0190911F010E949B039B010F
S1130280AC01C301B2010E94FA044B015C01C092AB
S11302901C01D0921D01E0921E01F0921F012981E0
S11302A03A814B815C816D817E818F8198850E942A
S11302B09C039B01AC01C501B4010E949C032896D8
S11302C00FB6F894DEBF0FBECDBFDF91CF91FF9084
S11302D0EF90DF90CF90BF90AF909F908F907F90E2
S11302E06F905F904F900895CF93DF93CDB7DEB7B3
S11302F068970FB6F894DEBF0FBECDBF0E947100A1
S11303000E94750078940E94530080E00E9463006C
S11303100E947C000E946B001D861E861F86188A20
S1130320198A1A8A1B8A1C8A1D8A1E8A1F8A188E99
S11303308CE0ECE0F1E0DE01119601900D928A95DB
S1130340E1F7CE010D960E94A100762E672E582E5D
S1130350492E00E010E0C8C05801AA0CBB1CAA0C2E
S1130360BB1C81E090E08C0F9D1FA80EB91EF50107
S1130370C080D180E280F380A701960164857585F1
S1130380868597850E949C03F50164877587868717
S11303909787CE010D960E94A100A62EB72E982E07
S11303A0892E262F372F482F592F672D762D852DEF
S11303B0942D0E94F5041816ECF43801660C771C91
S11303C0660C771C81E090E08C0F9D1F680E791EEF
S11303D02DEC3CEC4CE85FE3C701B6010E94FA0443
S11303E0F30160837183828393837A2C6B2C592C61
S11303F0482C78C02DEC3CEC4CEC5DE3C701B60115
S11304000E94FA049B01AC015801AA0CBB1CAA0C63
S1130410BB1C81E090E08C0F9D1FA80EB91EF50156
S113042064857585868597850E949B03F50164879D
S1130430758786879787CE010D960E94A100B62EF8
S1130440A72E982E892E262F372F482F592F672D08
S1130450762D852D942D0E94F5041816ECF43801A0
S1130460660C771C660C771C81E090E08C0F9D1F56
S1130470680E791E26E636E646E85FE3C701B60154
S11304800E94FA04F30160837183828393837B2C3B
S11304906A2C592C482C26C05801AA0CBB1CAA0C47
S11304A0BB1C81E090E08C0F9D1FA80EB91EA70114
S11304B09601F50164857585868597850E949C0360
S11304C0F501648775878687978723E333E343E7DA
S11304D05FE3C701B6010E94FA04F50160837183EA
S11304E0828393830F5F1F4F033011050CF434CFC5
S11304F06091200170E080E090E00E9445046B016F
S11305007C0120E030E04EEF52E4609108017091EC
S1130510090180910A0190910B010E949C039B01A7
S1130520AC01C701B6010E94F504882354F08BB1D5
S113053087708BB98BB180628BB98EE690E00E9494
S113054080006091200170E080E090E00E9445040A
S11305506B017C01209108013091090140910A014D
S113056050910B0160E070E08EEF92E40E949B03D7
S11305709B01AC01C701B6010E940804882354F40E
S11305808BB187708BB98BB180618BB98EE690E0AB
S11305900E9480006091200170E080E090E00E9461
S11305A045046B017C0120E030E04EEF52E46091A1
S11305B008017091090180910A0190910B010E9438
S11305C09C039B01AC01C701B6010E940804882367
S11305D05CF520E030E04EEF52E46091040170914C
S11305E0050180910601909107010E949C039B01E3
S11305F0AC01C701B6010E94F5041816ACF48BB126
S113060087708BB98BB180628BB9CE010D960E9435
S1130610A1002DEC3CEC4CE45FE30E94FA040E9440
S11306200D04CB010E9480006091200170E080E005
S113063090E00E9445046B017C01209108013091F7
S1130640090140910A0150910B0160E070E08EEFC6
S113065092E40E949B039B01AC01C701B6010E9476
S1130660F50418165CF520910401309105014091C0
S113067006015091070160E070E08EEF92E40E9461
S11306809B039B01AC01C701B6010E9408048823A7
S1130690ACF48BB187708BB98BB180618BB9CE010F
S11306A00D960E94A1002DEC3CEC4CE45FE30E940B
S11306B0FA040E940D04CB010E9480006091200185
S11306C070E080E090E00E9445046B017C01809022
S11306D0000190900101A0900201B090030120E07C
S11306E030E04EEF52E4C501B4010E949C039B012B
S11306F0AC01C701B6010E94080488230CF029CE7E
S1130700A501940160E070E08EEF92E40E949B03E7
S11307109B01AC01C701B6010E94F50418160CF048
S113072018CE8BB187708BB98BB18BB980E090E018
S11307300E9480000ECE5058BB27AA270E94B30304
S11307400C94BB040E94AD0438F00E94B40420F061
S113075039F49F3F19F426F40C94AA040EF4E0959E
S1130760E7FB0C94A404E92F0E94CC0458F3BA17B5
S1130770620773078407950720F079F4A6F50C94B3
S1130780EE040EF4E0950B2EBA2FA02D0B01B90147
S113079090010C01CA01A0011124FF27591B99F0F3
S11307A0593F50F4503E68F11A16F040A22F232FFF
S11307B0342F4427585FF3CF469537952795A7954F
S11307C0F0405395C9F77EF41F16BA0B620B730BF6
S11307D0840BBAF09150A1F0FF0FBB1F661F771F67
S11307E0881FC2F70EC0BA0F621F731F841F48F41C
S11307F0879577956795B795F7959E3F08F0B0CFA5
S11308009395880F08F09927EE0F9795879508958B
S11308100E94800408F481E008950E9414046894FE
S1130820B1110C94EF0408950E94D40488F09F57EA
S113083098F0B92F9927B751B0F0E1F0660F771F00
S1130840881F991F1AF0BA95C9F714C0B13091F0F6
S11308500E94EE04B1E008950C94EE04672F782F03
S11308608827B85F39F0B93FCCF3869577956795BB
S1130870B395D9F73EF490958095709561957F4F27
S11308808F4F9F4F0895E89409C097FB3EF49095CD
S11308908095709561957F4F8F4F9F4F9923A9F055
S11308A0F92F96E9BB279395F695879577956795E4
S11308B0B795F111F8CFFAF4BB0F11F460FF1BC028
S11308C06F5F7F4F8F4F9F4F16C0882311F096E9BB
S11308D011C0772321F09EE8872F762F05C0662369
S11308E071F096E8862F70E060E02AF09A95660F22
S11308F0771F881FDAF7880F9695879597F90895DB
S1130900990F0008550FAA0BE0E8FEEF161617061C
S1130910E807F907C0F012161306E407F50798F084
S1130920621B730B840B950B39F40A2661F0232B9D
S1130930242B252B21F408950A2609F4A140A69519
S11309408FEF811D811D089597F99F6780E870E0FE
S113095060E008959FEF80EC089500240A94161631
S1130960170618060906089500240A941216130699
S1130970140605060895092E0394000C11F4882327
S113098052F0BB0F40F4BF2B11F460FF04C06F5F43
S11309907F4F8F4F9F4F089557FD9058440F551F19
S11309A059F05F3F71F04795880F97FB991F61F0ED
S11309B09F3F79F087950895121613061406551F64
S11309C0F2CF4695F1DF08C0161617061806991FD0
S11309D0F1CF86957105610508940895E894BB27C5
S11309E066277727CB0197F908950E94800408F4BD
S11309F08FEF08950E940D050C94BB040E94AD0472
S1130A0038F00E94B40420F0952311F00C94A4044F
S1130A100C94AA0411240C94EF040E94CC0470F3E7
S1130A20959FC1F3950F50E0551F629FF001729F8F
S1130A30BB27F00DB11D639FAA27F00DB11DAA1F9E
S1130A40649F6627B00DA11D661F829F2227B00DEB
S1130A50A11D621F739FB00DA11D621F839FA00D76
S1130A60611D221F749F3327A00D611D231F849FC6
S1130A70600D211D822F762F6A2F11249F5750401D
S1130A809AF0F1F088234AF0EE0FFF1FBB1F661F98
S1130A90771F881F91505040A9F79E3F510580F061
S1130AA00C94A4040C94EF045F3FE4F3983ED4F355
S1130AB0869577956795B795F795E7959F5FC1F705
S1130AC0FE2B880F911D9695879597F90895F894B4
S1050AD0FFCF52
S1130AD2000048420000B4420000C8420000803FC7
S10B0AE20000003F0000003F8A
S9030000FC
